{
  "_format": "hh-sol-artifact-1",
  "contractName": "Hello",
  "sourceName": "contracts/Tst.sol",
  "abi": [
    {
      "anonymous": false,
      "inputs": [
        {
          "indexed": true,
          "internalType": "address",
          "name": "from",
          "type": "address"
        },
        {
          "indexed": false,
          "internalType": "uint256",
          "name": "value",
          "type": "uint256"
        }
      ],
      "name": "Payment",
      "type": "event"
    },
    {
      "inputs": [],
      "name": "topUp",
      "outputs": [
        {
          "internalType": "uint256",
          "name": "",
          "type": "uint256"
        }
      ],
      "stateMutability": "payable",
      "type": "function"
    }
  ],
  "bytecode": "0x608060405234801561001057600080fd5b506101db806100206000396000f3fe60806040526004361061001e5760003560e01c8063dc29f1de14610023575b600080fd5b61002b610041565b6040516100389190610105565b60405180910390f35b6000346000803373ffffffffffffffffffffffffffffffffffffffff1673ffffffffffffffffffffffffffffffffffffffff1681526020019081526020016000206000828254610091919061014f565b925050819055503373ffffffffffffffffffffffffffffffffffffffff167fd4f43975feb89f48dd30cabbb32011045be187d1e11c8ea9faa43efc35282519346040516100de9190610105565b60405180910390a234905090565b6000819050919050565b6100ff816100ec565b82525050565b600060208201905061011a60008301846100f6565b92915050565b7f4e487b7100000000000000000000000000000000000000000000000000000000600052601160045260246000fd5b600061015a826100ec565b9150610165836100ec565b9250827fffffffffffffffffffffffffffffffffffffffffffffffffffffffffffffffff0382111561019a57610199610120565b5b82820190509291505056fea2646970667358221220a4f960ec2d8f2bbb772e6413c306f8e3c3b864c587afba6d63bea1d3f24a247f64736f6c634300080c0033",
  "linkReferences": {},
  "deployedLinkReferences": {}
}